{
  "_format": "hh-sol-artifact-1",
  "contractName": "FundMe",
  "sourceName": "contracts/FundMe.sol",
  "abi": [
    {
      "inputs": [],
      "stateMutability": "nonpayable",
      "type": "constructor"
    },
    {
      "inputs": [
        {
          "internalType": "address",
          "name": "",
          "type": "address"
        }
      ],
      "name": "addressToAmountFunded",
      "outputs": [
        {
          "internalType": "uint256",
          "name": "",
          "type": "uint256"
        }
      ],
      "stateMutability": "view",
      "type": "function"
    },
    {
      "inputs": [],
      "name": "fund",
      "outputs": [],
      "stateMutability": "payable",
      "type": "function"
    },
    {
      "inputs": [
        {
          "internalType": "uint256",
          "name": "",
          "type": "uint256"
        }
      ],
      "name": "funders",
      "outputs": [
        {
          "internalType": "address",
          "name": "",
          "type": "address"
        }
      ],
      "stateMutability": "view",
      "type": "function"
    },
    {
      "inputs": [
        {
          "internalType": "uint256",
          "name": "ethAmount",
          "type": "uint256"
        }
      ],
      "name": "getConversionRate",
      "outputs": [
        {
          "internalType": "uint256",
          "name": "",
          "type": "uint256"
        }
      ],
      "stateMutability": "view",
      "type": "function"
    },
    {
      "inputs": [],
      "name": "getPriceInWei",
      "outputs": [
        {
          "internalType": "uint256",
          "name": "",
          "type": "uint256"
        }
      ],
      "stateMutability": "view",
      "type": "function"
    },
    {
      "inputs": [],
      "name": "getVersion",
      "outputs": [
        {
          "internalType": "uint256",
          "name": "",
          "type": "uint256"
        }
      ],
      "stateMutability": "view",
      "type": "function"
    },
    {
      "inputs": [],
      "name": "owner",
      "outputs": [
        {
          "internalType": "address",
          "name": "",
          "type": "address"
        }
      ],
      "stateMutability": "view",
      "type": "function"
    },
    {
      "inputs": [],
      "name": "withdraw",
      "outputs": [],
      "stateMutability": "payable",
      "type": "function"
    }
  ],
  "bytecode": "0x6080604052600080546001600160a01b031916738a753747a1fa494ec906ce90e9f37563a8af630e17905534801561003657600080fd5b50600180546001600160a01b031916331790556107cf806100586000396000f3fe60806040526004361061007b5760003560e01c80638da5cb5b1161004e5780638da5cb5b146100f5578063b60d428814610117578063dc0d3dff1461011f578063fc5046551461013f5761007b565b80630d8e6e2c146100805780633ccfd60b146100ab5780633e47d6f3146100b55780636e5b6b28146100d5575b600080fd5b34801561008c57600080fd5b50610095610154565b6040516100a29190610650565b60405180910390f35b6100b36101f2565b005b3480156100c157600080fd5b506100956100d0366004610558565b6102c2565b3480156100e157600080fd5b506100956100f0366004610586565b6102d4565b34801561010157600080fd5b5061010a61030a565b6040516100a29190610605565b6100b3610319565b34801561012b57600080fd5b5061010a61013a366004610586565b6103e3565b34801561014b57600080fd5b5061009561040d565b60008054604080517f54fd4d5000000000000000000000000000000000000000000000000000000000815290516001600160a01b039092169182916354fd4d50916004808301926020929190829003018186803b1580156101b457600080fd5b505afa1580156101c8573d6000803e3d6000fd5b505050506040513d601f19601f820116820180604052508101906101ec919061059e565b91505090565b6001546001600160a01b0316331461020957600080fd5b60405133904780156108fc02916000818181858888f19350505050158015610235573d6000803e3d6000fd5b5060005b6002548110156102a1576000600360006002848154811061026a57634e487b7160e01b600052603260045260246000fd5b60009182526020808320909101546001600160a01b031683528201929092526040019020558061029981610768565b915050610239565b5060408051600081526020810191829052516102bf916002916104b7565b50565b60036020526000908152604090205481565b6000806102df61040d565b90506000670de0b6b3a76400006102f68584610749565b6103009190610671565b925050505b919050565b6001546001600160a01b031681565b674563918244f400008061032c346102d4565b101561036d576040517f08c379a000000000000000000000000000000000000000000000000000000000815260040161036490610619565b60405180910390fd5b336000908152600360205260408120805434929061038c908490610659565b9091555050600280546001810182556000919091527f405787fa12a823e0f2b7631cc41b3ba8828b3321ca811111fa75cd3aa3bb5ace01805473ffffffffffffffffffffffffffffffffffffffff19163317905550565b600281815481106103f357600080fd5b6000918252602090912001546001600160a01b0316905081565b60008060008054906101000a90046001600160a01b031690506000816001600160a01b031663feaf968c6040518163ffffffff1660e01b815260040160a06040518083038186803b15801561046157600080fd5b505afa158015610475573d6000803e3d6000fd5b505050506040513d601f19601f8201168201806040525081019061049991906105b6565b505050915050806402540be4006104b09190610691565b9250505090565b828054828255906000526020600020908101928215610519579160200282015b82811115610519578251825473ffffffffffffffffffffffffffffffffffffffff19166001600160a01b039091161782556020909201916001909101906104d7565b50610525929150610529565b5090565b5b80821115610525576000815560010161052a565b805169ffffffffffffffffffff8116811461030557600080fd5b600060208284031215610569578081fd5b81356001600160a01b038116811461057f578182fd5b9392505050565b600060208284031215610597578081fd5b5035919050565b6000602082840312156105af578081fd5b5051919050565b600080600080600060a086880312156105cd578081fd5b6105d68661053e565b94506020860151935060408601519250606086015191506105f96080870161053e565b90509295509295909350565b6001600160a01b0391909116815260200190565b6020808252601a908201527f596f75206e65656420746f207370656e64206d6f726520455448000000000000604082015260600190565b90815260200190565b6000821982111561066c5761066c610783565b500190565b60008261068c57634e487b7160e01b81526012600452602481fd5b500490565b60007f7fffffffffffffffffffffffffffffffffffffffffffffffffffffffffffffff818413828413858304851182821616156106d0576106d0610783565b7f80000000000000000000000000000000000000000000000000000000000000008487128682058812818416161561070a5761070a610783565b85871292508782058712848416161561072557610725610783565b8785058712818416161561073b5761073b610783565b505050929093029392505050565b600081600019048311821515161561076357610763610783565b500290565b600060001982141561077c5761077c610783565b5060010190565b634e487b7160e01b600052601160045260246000fdfea26469706673582212205850ade13541a6e88a0d93e8cfc129f3bf00eaf3555de2d3c6b4aa489955037564736f6c63430008000033",
  "linkReferences": {},
  "deployedLinkReferences": {}
}