{
  "_format": "hh-sol-artifact-1",
  "contractName": "SimpleStorage",
  "sourceName": "contracts/SimpleStorage.sol",
  "abi": [
    {
      "inputs": [
        {
          "internalType": "string",
          "name": "_name",
          "type": "string"
        },
        {
          "internalType": "uint256",
          "name": "_myNumber",
          "type": "uint256"
        }
      ],
      "name": "addPerson",
      "outputs": [],
      "stateMutability": "nonpayable",
      "type": "function"
    },
    {
      "inputs": [
        {
          "internalType": "string",
          "name": "",
          "type": "string"
        }
      ],
      "name": "nameToMyNumber",
      "outputs": [
        {
          "internalType": "uint256",
          "name": "",
          "type": "uint256"
        }
      ],
      "stateMutability": "view",
      "type": "function"
    },
    {
      "inputs": [
        {
          "internalType": "uint256",
          "name": "",
          "type": "uint256"
        }
      ],
      "name": "people",
      "outputs": [
        {
          "internalType": "uint256",
          "name": "myNumber",
          "type": "uint256"
        },
        {
          "internalType": "string",
          "name": "name",
          "type": "string"
        }
      ],
      "stateMutability": "view",
      "type": "function"
    },
    {
      "inputs": [],
      "name": "retrieve",
      "outputs": [
        {
          "internalType": "uint256",
          "name": "",
          "type": "uint256"
        }
      ],
      "stateMutability": "view",
      "type": "function"
    },
    {
      "inputs": [
        {
          "internalType": "uint256",
          "name": "_myNumber",
          "type": "uint256"
        }
      ],
      "name": "store",
      "outputs": [
        {
          "internalType": "uint256",
          "name": "",
          "type": "uint256"
        }
      ],
      "stateMutability": "nonpayable",
      "type": "function"
    }
  ],
  "bytecode": "0x608060405234801561001057600080fd5b5061053d806100206000396000f3fe608060405234801561001057600080fd5b50600436106100675760003560e01c80636f760f41116100505780636f760f411461009d578063751db15b146100b25780639e7a13ad146100c557610067565b80632e64cec11461006c5780636057361d1461008a575b600080fd5b6100746100e6565b6040516100819190610443565b60405180910390f35b61007461009836600461040f565b6100ec565b6100b06100ab3660046103cc565b6100f4565b005b6100746100c0366004610391565b6101a2565b6100d86100d336600461040f565b6101bf565b60405161008192919061044c565b60005490565b600081905590565b604080518082019091528181526020808201848152600180548082018255600091909152835160029091027fb10e2d527612073b26eecdfd717e6a320cf44b4afac2b0732d9fcbe2b7fa0cf6810191825591518051919361017a937fb10e2d527612073b26eecdfd717e6a320cf44b4afac2b0732d9fcbe2b7fa0cf70192910190610277565b5050508060028360405161018e9190610427565b908152604051908190036020019020555050565b805160208183018101805160028252928201919093012091525481565b600181815481106101cf57600080fd5b600091825260209091206002909102018054600182018054919350906101f4906104b6565b80601f0160208091040260200160405190810160405280929190818152602001828054610220906104b6565b801561026d5780601f106102425761010080835404028352916020019161026d565b820191906000526020600020905b81548152906001019060200180831161025057829003601f168201915b5050505050905082565b828054610283906104b6565b90600052602060002090601f0160209004810192826102a557600085556102eb565b82601f106102be57805160ff19168380011785556102eb565b828001600101855582156102eb579182015b828111156102eb5782518255916020019190600101906102d0565b506102f79291506102fb565b5090565b5b808211156102f757600081556001016102fc565b600082601f830112610320578081fd5b813567ffffffffffffffff8082111561033b5761033b6104f1565b604051601f8301601f19168101602001828111828210171561035f5761035f6104f1565b604052828152848301602001861015610376578384fd5b82602086016020830137918201602001929092529392505050565b6000602082840312156103a2578081fd5b813567ffffffffffffffff8111156103b8578182fd5b6103c484828501610310565b949350505050565b600080604083850312156103de578081fd5b823567ffffffffffffffff8111156103f4578182fd5b61040085828601610310565b95602094909401359450505050565b600060208284031215610420578081fd5b5035919050565b60008251610439818460208701610486565b9190910192915050565b90815260200190565b6000838252604060208301528251806040840152610471816060850160208701610486565b601f01601f1916919091016060019392505050565b60005b838110156104a1578181015183820152602001610489565b838111156104b0576000848401525b50505050565b6002810460018216806104ca57607f821691505b602082108114156104eb57634e487b7160e01b600052602260045260246000fd5b50919050565b634e487b7160e01b600052604160045260246000fdfea26469706673582212207e65ad249f4e7badc358b9c6a54dc7a8c8bbd77ff5a30f09949cb5006ad345a564736f6c63430008000033",
  "linkReferences": {},
  "deployedLinkReferences": {}
}